{
  "_format": "hh-sol-artifact-1",
  "contractName": "NFTC",
  "sourceName": "contracts/NFTC.sol",
  "abi": [
    {
      "inputs": [
        {
          "internalType": "string",
          "name": "_promptDesc",
          "type": "string"
        },
        {
          "internalType": "string",
          "name": "name_",
          "type": "string"
        },
        {
          "internalType": "string",
          "name": "symbol_",
          "type": "string"
        }
      ],
      "stateMutability": "nonpayable",
      "type": "constructor"
    },
    {
      "anonymous": false,
      "inputs": [
        {
          "indexed": true,
          "internalType": "address",
          "name": "owner",
          "type": "address"
        },
        {
          "indexed": true,
          "internalType": "address",
          "name": "approved",
          "type": "address"
        },
        {
          "indexed": true,
          "internalType": "uint256",
          "name": "tokenId",
          "type": "uint256"
        }
      ],
      "name": "Approval",
      "type": "event"
    },
    {
      "anonymous": false,
      "inputs": [
        {
          "indexed": true,
          "internalType": "address",
          "name": "owner",
          "type": "address"
        },
        {
          "indexed": true,
          "internalType": "address",
          "name": "operator",
          "type": "address"
        },
        {
          "indexed": false,
          "internalType": "bool",
          "name": "approved",
          "type": "bool"
        }
      ],
      "name": "ApprovalForAll",
      "type": "event"
    },
    {
      "anonymous": false,
      "inputs": [
        {
          "indexed": true,
          "internalType": "address",
          "name": "owner",
          "type": "address"
        },
        {
          "indexed": true,
          "internalType": "uint256",
          "name": "tokenId",
          "type": "uint256"
        },
        {
          "indexed": false,
          "internalType": "string",
          "name": "tokenURI",
          "type": "string"
        }
      ],
      "name": "NFTMinted",
      "type": "event"
    },
    {
      "anonymous": false,
      "inputs": [
        {
          "indexed": true,
          "internalType": "address",
          "name": "from",
          "type": "address"
        },
        {
          "indexed": true,
          "internalType": "address",
          "name": "to",
          "type": "address"
        },
        {
          "indexed": true,
          "internalType": "uint256",
          "name": "tokenId",
          "type": "uint256"
        }
      ],
      "name": "Transfer",
      "type": "event"
    },
    {
      "inputs": [
        {
          "internalType": "address",
          "name": "to",
          "type": "address"
        },
        {
          "internalType": "uint256",
          "name": "tokenId",
          "type": "uint256"
        }
      ],
      "name": "approve",
      "outputs": [],
      "stateMutability": "nonpayable",
      "type": "function"
    },
    {
      "inputs": [
        {
          "internalType": "address",
          "name": "owner",
          "type": "address"
        }
      ],
      "name": "balanceOf",
      "outputs": [
        {
          "internalType": "uint256",
          "name": "",
          "type": "uint256"
        }
      ],
      "stateMutability": "view",
      "type": "function"
    },
    {
      "inputs": [
        {
          "internalType": "uint256",
          "name": "tokenId",
          "type": "uint256"
        }
      ],
      "name": "getApproved",
      "outputs": [
        {
          "internalType": "address",
          "name": "",
          "type": "address"
        }
      ],
      "stateMutability": "view",
      "type": "function"
    },
    {
      "inputs": [
        {
          "internalType": "uint256",
          "name": "tokenId",
          "type": "uint256"
        }
      ],
      "name": "getNFTURI",
      "outputs": [
        {
          "internalType": "string",
          "name": "",
          "type": "string"
        }
      ],
      "stateMutability": "view",
      "type": "function"
    },
    {
      "inputs": [
        {
          "internalType": "address",
          "name": "owner",
          "type": "address"
        },
        {
          "internalType": "address",
          "name": "operator",
          "type": "address"
        }
      ],
      "name": "isApprovedForAll",
      "outputs": [
        {
          "internalType": "bool",
          "name": "",
          "type": "bool"
        }
      ],
      "stateMutability": "view",
      "type": "function"
    },
    {
      "inputs": [
        {
          "internalType": "address",
          "name": "recipient",
          "type": "address"
        },
        {
          "internalType": "string",
          "name": "nftTokenURI",
          "type": "string"
        }
      ],
      "name": "mintNFT",
      "outputs": [
        {
          "internalType": "uint256",
          "name": "",
          "type": "uint256"
        }
      ],
      "stateMutability": "nonpayable",
      "type": "function"
    },
    {
      "inputs": [],
      "name": "name",
      "outputs": [
        {
          "internalType": "string",
          "name": "",
          "type": "string"
        }
      ],
      "stateMutability": "view",
      "type": "function"
    },
    {
      "inputs": [
        {
          "internalType": "uint256",
          "name": "tokenId",
          "type": "uint256"
        }
      ],
      "name": "ownerOf",
      "outputs": [
        {
          "internalType": "address",
          "name": "",
          "type": "address"
        }
      ],
      "stateMutability": "view",
      "type": "function"
    },
    {
      "inputs": [],
      "name": "promptDesc",
      "outputs": [
        {
          "internalType": "string",
          "name": "",
          "type": "string"
        }
      ],
      "stateMutability": "view",
      "type": "function"
    },
    {
      "inputs": [
        {
          "internalType": "address",
          "name": "from",
          "type": "address"
        },
        {
          "internalType": "address",
          "name": "to",
          "type": "address"
        },
        {
          "internalType": "uint256",
          "name": "tokenId",
          "type": "uint256"
        }
      ],
      "name": "safeTransferFrom",
      "outputs": [],
      "stateMutability": "nonpayable",
      "type": "function"
    },
    {
      "inputs": [
        {
          "internalType": "address",
          "name": "from",
          "type": "address"
        },
        {
          "internalType": "address",
          "name": "to",
          "type": "address"
        },
        {
          "internalType": "uint256",
          "name": "tokenId",
          "type": "uint256"
        },
        {
          "internalType": "bytes",
          "name": "data",
          "type": "bytes"
        }
      ],
      "name": "safeTransferFrom",
      "outputs": [],
      "stateMutability": "nonpayable",
      "type": "function"
    },
    {
      "inputs": [
        {
          "internalType": "address",
          "name": "operator",
          "type": "address"
        },
        {
          "internalType": "bool",
          "name": "approved",
          "type": "bool"
        }
      ],
      "name": "setApprovalForAll",
      "outputs": [],
      "stateMutability": "nonpayable",
      "type": "function"
    },
    {
      "inputs": [
        {
          "internalType": "bytes4",
          "name": "interfaceId",
          "type": "bytes4"
        }
      ],
      "name": "supportsInterface",
      "outputs": [
        {
          "internalType": "bool",
          "name": "",
          "type": "bool"
        }
      ],
      "stateMutability": "view",
      "type": "function"
    },
    {
      "inputs": [],
      "name": "symbol",
      "outputs": [
        {
          "internalType": "string",
          "name": "",
          "type": "string"
        }
      ],
      "stateMutability": "view",
      "type": "function"
    },
    {
      "inputs": [
        {
          "internalType": "uint256",
          "name": "tokenId",
          "type": "uint256"
        }
      ],
      "name": "tokenURI",
      "outputs": [
        {
          "internalType": "string",
          "name": "",
          "type": "string"
        }
      ],
      "stateMutability": "view",
      "type": "function"
    },
    {
      "inputs": [
        {
          "internalType": "address",
          "name": "from",
          "type": "address"
        },
        {
          "internalType": "address",
          "name": "to",
          "type": "address"
        },
        {
          "internalType": "uint256",
          "name": "tokenId",
          "type": "uint256"
        }
      ],
      "name": "transferFrom",
      "outputs": [],
      "stateMutability": "nonpayable",
      "type": "function"
    }
  ],
  "bytecode": "0x60806040523480156200001157600080fd5b5060405162002b3e38038062002b3e8339818101604052810190620000379190620001eb565b8181816000908051906020019062000051929190620000c9565b5080600190805190602001906200006a929190620000c9565b505050600060088190555082600990805190602001906200008d929190620000c9565b508160069080519060200190620000a6929190620000c9565b508060079080519060200190620000bf929190620000c9565b50505050620003fc565b828054620000d79062000321565b90600052602060002090601f016020900481019282620000fb576000855562000147565b82601f106200011657805160ff191683800117855562000147565b8280016001018555821562000147579182015b828111156200014657825182559160200191906001019062000129565b5b5090506200015691906200015a565b5090565b5b80821115620001755760008160009055506001016200015b565b5090565b6000620001906200018a84620002b5565b6200028c565b905082815260208101848484011115620001a957600080fd5b620001b6848285620002eb565b509392505050565b600082601f830112620001d057600080fd5b8151620001e284826020860162000179565b91505092915050565b6000806000606084860312156200020157600080fd5b600084015167ffffffffffffffff8111156200021c57600080fd5b6200022a86828701620001be565b935050602084015167ffffffffffffffff8111156200024857600080fd5b6200025686828701620001be565b925050604084015167ffffffffffffffff8111156200027457600080fd5b6200028286828701620001be565b9150509250925092565b600062000298620002ab565b9050620002a6828262000357565b919050565b6000604051905090565b600067ffffffffffffffff821115620002d357620002d2620003bc565b5b620002de82620003eb565b9050602081019050919050565b60005b838110156200030b578082015181840152602081019050620002ee565b838111156200031b576000848401525b50505050565b600060028204905060018216806200033a57607f821691505b602082108114156200035157620003506200038d565b5b50919050565b6200036282620003eb565b810181811067ffffffffffffffff82111715620003845762000383620003bc565b5b80604052505050565b7f4e487b7100000000000000000000000000000000000000000000000000000000600052602260045260246000fd5b7f4e487b7100000000000000000000000000000000000000000000000000000000600052604160045260246000fd5b6000601f19601f8301169050919050565b612732806200040c6000396000f3fe608060405234801561001057600080fd5b50600436106100ff5760003560e01c806370a0823111610097578063b88d4fde11610066578063b88d4fde146102be578063c87b56dd146102da578063e985e9c51461030a578063eacabe141461033a576100ff565b806370a082311461023657806395d89b411461026657806396dea7c514610284578063a22cb465146102a2576100ff565b8063095ea7b3116100d3578063095ea7b3146101b257806323b872dd146101ce57806342842e0e146101ea5780636352211e14610206576100ff565b8062621fda1461010457806301ffc9a71461013457806306fdde0314610164578063081812fc14610182575b600080fd5b61011e60048036038101906101199190611b7b565b61036a565b60405161012b9190611e8c565b60405180910390f35b61014e60048036038101906101499190611b29565b61037c565b60405161015b9190611e71565b60405180910390f35b61016c61045e565b6040516101799190611e8c565b60405180910390f35b61019c60048036038101906101979190611b7b565b6104f0565b6040516101a99190611e0a565b60405180910390f35b6101cc60048036038101906101c79190611aed565b610536565b005b6101e860048036038101906101e39190611993565b61064e565b005b61020460048036038101906101ff9190611993565b6106ae565b005b610220600480360381019061021b9190611b7b565b6106ce565b60405161022d9190611e0a565b60405180910390f35b610250600480360381019061024b919061192e565b610755565b60405161025d919061204e565b60405180910390f35b61026e61080d565b60405161027b9190611e8c565b60405180910390f35b61028c61089f565b6040516102999190611e8c565b60405180910390f35b6102bc60048036038101906102b79190611a5d565b61092d565b005b6102d860048036038101906102d391906119e2565b610943565b005b6102f460048036038101906102ef9190611b7b565b6109a5565b6040516103019190611e8c565b60405180910390f35b610324600480360381019061031f9190611957565b610a92565b6040516103319190611e71565b60405180910390f35b610354600480360381019061034f9190611a99565b610b26565b604051610361919061204e565b60405180910390f35b6060610375826109a5565b9050919050565b60007f80ac58cd000000000000000000000000000000000000000000000000000000007bffffffffffffffffffffffffffffffffffffffffffffffffffffffff1916827bffffffffffffffffffffffffffffffffffffffffffffffffffffffff1916148061044757507f5b5e139f000000000000000000000000000000000000000000000000000000007bffffffffffffffffffffffffffffffffffffffffffffffffffffffff1916827bffffffffffffffffffffffffffffffffffffffffffffffffffffffff1916145b80610457575061045682610bae565b5b9050919050565b60606000805461046d90612234565b80601f016020809104026020016040519081016040528092919081815260200182805461049990612234565b80156104e65780601f106104bb576101008083540402835291602001916104e6565b820191906000526020600020905b8154815290600101906020018083116104c957829003601f168201915b5050505050905090565b60006104fb82610c18565b6004600083815260200190815260200160002060009054906101000a900473ffffffffffffffffffffffffffffffffffffffff169050919050565b6000610541826106ce565b90508073ffffffffffffffffffffffffffffffffffffffff168373ffffffffffffffffffffffffffffffffffffffff1614156105b2576040517f08c379a00000000000000000000000000000000000000000000000000000000081526004016105a99061200e565b60405180910390fd5b8073ffffffffffffffffffffffffffffffffffffffff166105d1610c63565b73ffffffffffffffffffffffffffffffffffffffff16148061060057506105ff816105fa610c63565b610a92565b5b61063f576040517f08c379a00000000000000000000000000000000000000000000000000000000081526004016106369061202e565b60405180910390fd5b6106498383610c6b565b505050565b61065f610659610c63565b82610d24565b61069e576040517f08c379a000000000000000000000000000000000000000000000000000000000815260040161069590611eae565b60405180910390fd5b6106a9838383610db9565b505050565b6106c983838360405180602001604052806000815250610943565b505050565b6000806106da836110b3565b9050600073ffffffffffffffffffffffffffffffffffffffff168173ffffffffffffffffffffffffffffffffffffffff16141561074c576040517f08c379a000000000000000000000000000000000000000000000000000000000815260040161074390611fee565b60405180910390fd5b80915050919050565b60008073ffffffffffffffffffffffffffffffffffffffff168273ffffffffffffffffffffffffffffffffffffffff1614156107c6576040517f08c379a00000000000000000000000000000000000000000000000000000000081526004016107bd90611f6e565b60405180910390fd5b600360008373ffffffffffffffffffffffffffffffffffffffff1673ffffffffffffffffffffffffffffffffffffffff168152602001908152602001600020549050919050565b60606001805461081c90612234565b80601f016020809104026020016040519081016040528092919081815260200182805461084890612234565b80156108955780601f1061086a57610100808354040283529160200191610895565b820191906000526020600020905b81548152906001019060200180831161087857829003601f168201915b5050505050905090565b600980546108ac90612234565b80601f01602080910402602001604051908101604052809291908181526020018280546108d890612234565b80156109255780601f106108fa57610100808354040283529160200191610925565b820191906000526020600020905b81548152906001019060200180831161090857829003601f168201915b505050505081565b61093f610938610c63565b83836110f0565b5050565b61095461094e610c63565b83610d24565b610993576040517f08c379a000000000000000000000000000000000000000000000000000000000815260040161098a90611eae565b60405180910390fd5b61099f8484848461125d565b50505050565b60606109b0826112b9565b6109ef576040517f08c379a00000000000000000000000000000000000000000000000000000000081526004016109e690611fce565b60405180910390fd5b600a60008381526020019081526020016000208054610a0d90612234565b80601f0160208091040260200160405190810160405280929190818152602001828054610a3990612234565b8015610a865780601f10610a5b57610100808354040283529160200191610a86565b820191906000526020600020905b815481529060010190602001808311610a6957829003601f168201915b50505050509050919050565b6000600560008473ffffffffffffffffffffffffffffffffffffffff1673ffffffffffffffffffffffffffffffffffffffff16815260200190815260200160002060008373ffffffffffffffffffffffffffffffffffffffff1673ffffffffffffffffffffffffffffffffffffffff16815260200190815260200160002060009054906101000a900460ff16905092915050565b6000806001600854610b389190612128565b9050610b4484826112fa565b610b4e8184611518565b808473ffffffffffffffffffffffffffffffffffffffff167fd35bb95e09c04b219e35047ce7b7b300e3384264ef84a40456943dbc0fc17c1485604051610b959190611e8c565b60405180910390a3806008819055508091505092915050565b60007f01ffc9a7000000000000000000000000000000000000000000000000000000007bffffffffffffffffffffffffffffffffffffffffffffffffffffffff1916827bffffffffffffffffffffffffffffffffffffffffffffffffffffffff1916149050919050565b610c21816112b9565b610c60576040517f08c379a0000000000000000000000000000000000000000000000000000000008152600401610c5790611fee565b60405180910390fd5b50565b600033905090565b816004600083815260200190815260200160002060006101000a81548173ffffffffffffffffffffffffffffffffffffffff021916908373ffffffffffffffffffffffffffffffffffffffff160217905550808273ffffffffffffffffffffffffffffffffffffffff16610cde836106ce565b73ffffffffffffffffffffffffffffffffffffffff167f8c5be1e5ebec7d5bd14f71427d1e84f3dd0314c0f7b2291e5b200ac8c7c3b92560405160405180910390a45050565b600080610d30836106ce565b90508073ffffffffffffffffffffffffffffffffffffffff168473ffffffffffffffffffffffffffffffffffffffff161480610d725750610d718185610a92565b5b80610db057508373ffffffffffffffffffffffffffffffffffffffff16610d98846104f0565b73ffffffffffffffffffffffffffffffffffffffff16145b91505092915050565b8273ffffffffffffffffffffffffffffffffffffffff16610dd9826106ce565b73ffffffffffffffffffffffffffffffffffffffff1614610e2f576040517f08c379a0000000000000000000000000000000000000000000000000000000008152600401610e2690611eee565b60405180910390fd5b600073ffffffffffffffffffffffffffffffffffffffff168273ffffffffffffffffffffffffffffffffffffffff161415610e9f576040517f08c379a0000000000000000000000000000000000000000000000000000000008152600401610e9690611f2e565b60405180910390fd5b610eac838383600161158c565b8273ffffffffffffffffffffffffffffffffffffffff16610ecc826106ce565b73ffffffffffffffffffffffffffffffffffffffff1614610f22576040517f08c379a0000000000000000000000000000000000000000000000000000000008152600401610f1990611eee565b60405180910390fd5b6004600082815260200190815260200160002060006101000a81549073ffffffffffffffffffffffffffffffffffffffff02191690556001600360008573ffffffffffffffffffffffffffffffffffffffff1673ffffffffffffffffffffffffffffffffffffffff168152602001908152602001600020600082825403925050819055506001600360008473ffffffffffffffffffffffffffffffffffffffff1673ffffffffffffffffffffffffffffffffffffffff16815260200190815260200160002060008282540192505081905550816002600083815260200190815260200160002060006101000a81548173ffffffffffffffffffffffffffffffffffffffff021916908373ffffffffffffffffffffffffffffffffffffffff160217905550808273ffffffffffffffffffffffffffffffffffffffff168473ffffffffffffffffffffffffffffffffffffffff167fddf252ad1be2c89b69c2b068fc378daa952ba7f163c4a11628f55a4df523b3ef60405160405180910390a46110ae8383836001611592565b505050565b60006002600083815260200190815260200160002060009054906101000a900473ffffffffffffffffffffffffffffffffffffffff169050919050565b8173ffffffffffffffffffffffffffffffffffffffff168373ffffffffffffffffffffffffffffffffffffffff16141561115f576040517f08c379a000000000000000000000000000000000000000000000000000000000815260040161115690611f4e565b60405180910390fd5b80600560008573ffffffffffffffffffffffffffffffffffffffff1673ffffffffffffffffffffffffffffffffffffffff16815260200190815260200160002060008473ffffffffffffffffffffffffffffffffffffffff1673ffffffffffffffffffffffffffffffffffffffff16815260200190815260200160002060006101000a81548160ff0219169083151502179055508173ffffffffffffffffffffffffffffffffffffffff168373ffffffffffffffffffffffffffffffffffffffff167f17307eab39ab6107e8899845ad3d59bd9653f200f220920489ca2b5937696c31836040516112509190611e71565b60405180910390a3505050565b611268848484610db9565b61127484848484611598565b6112b3576040517f08c379a00000000000000000000000000000000000000000000000000000000081526004016112aa90611ece565b60405180910390fd5b50505050565b60008073ffffffffffffffffffffffffffffffffffffffff166112db836110b3565b73ffffffffffffffffffffffffffffffffffffffff1614159050919050565b600073ffffffffffffffffffffffffffffffffffffffff168273ffffffffffffffffffffffffffffffffffffffff16141561136a576040517f08c379a000000000000000000000000000000000000000000000000000000000815260040161136190611f8e565b60405180910390fd5b611373816112b9565b156113b3576040517f08c379a00000000000000000000000000000000000000000000000000000000081526004016113aa90611f0e565b60405180910390fd5b6113c160008383600161158c565b6113ca816112b9565b1561140a576040517f08c379a000000000000000000000000000000000000000000000000000000000815260040161140190611f0e565b60405180910390fd5b6001600360008473ffffffffffffffffffffffffffffffffffffffff1673ffffffffffffffffffffffffffffffffffffffff16815260200190815260200160002060008282540192505081905550816002600083815260200190815260200160002060006101000a81548173ffffffffffffffffffffffffffffffffffffffff021916908373ffffffffffffffffffffffffffffffffffffffff160217905550808273ffffffffffffffffffffffffffffffffffffffff16600073ffffffffffffffffffffffffffffffffffffffff167fddf252ad1be2c89b69c2b068fc378daa952ba7f163c4a11628f55a4df523b3ef60405160405180910390a4611514600083836001611592565b5050565b611521826112b9565b611560576040517f08c379a000000000000000000000000000000000000000000000000000000000815260040161155790611fae565b60405180910390fd5b80600a60008481526020019081526020016000209080519060200190611587929190611752565b505050565b50505050565b50505050565b60006115b98473ffffffffffffffffffffffffffffffffffffffff1661172f565b15611722578373ffffffffffffffffffffffffffffffffffffffff1663150b7a026115e2610c63565b8786866040518563ffffffff1660e01b81526004016116049493929190611e25565b602060405180830381600087803b15801561161e57600080fd5b505af192505050801561164f57506040513d601f19601f8201168201806040525081019061164c9190611b52565b60015b6116d2573d806000811461167f576040519150601f19603f3d011682016040523d82523d6000602084013e611684565b606091505b506000815114156116ca576040517f08c379a00000000000000000000000000000000000000000000000000000000081526004016116c190611ece565b60405180910390fd5b805181602001fd5b63150b7a0260e01b7bffffffffffffffffffffffffffffffffffffffffffffffffffffffff1916817bffffffffffffffffffffffffffffffffffffffffffffffffffffffff191614915050611727565b600190505b949350505050565b6000808273ffffffffffffffffffffffffffffffffffffffff163b119050919050565b82805461175e90612234565b90600052602060002090601f01602090048101928261178057600085556117c7565b82601f1061179957805160ff19168380011785556117c7565b828001600101855582156117c7579182015b828111156117c65782518255916020019190600101906117ab565b5b5090506117d491906117d8565b5090565b5b808211156117f15760008160009055506001016117d9565b5090565b60006118086118038461208e565b612069565b90508281526020810184848401111561182057600080fd5b61182b8482856121f2565b509392505050565b6000611846611841846120bf565b612069565b90508281526020810184848401111561185e57600080fd5b6118698482856121f2565b509392505050565b600081359050611880816126a0565b92915050565b600081359050611895816126b7565b92915050565b6000813590506118aa816126ce565b92915050565b6000815190506118bf816126ce565b92915050565b600082601f8301126118d657600080fd5b81356118e68482602086016117f5565b91505092915050565b600082601f83011261190057600080fd5b8135611910848260208601611833565b91505092915050565b600081359050611928816126e5565b92915050565b60006020828403121561194057600080fd5b600061194e84828501611871565b91505092915050565b6000806040838503121561196a57600080fd5b600061197885828601611871565b925050602061198985828601611871565b9150509250929050565b6000806000606084860312156119a857600080fd5b60006119b686828701611871565b93505060206119c786828701611871565b92505060406119d886828701611919565b9150509250925092565b600080600080608085870312156119f857600080fd5b6000611a0687828801611871565b9450506020611a1787828801611871565b9350506040611a2887828801611919565b925050606085013567ffffffffffffffff811115611a4557600080fd5b611a51878288016118c5565b91505092959194509250565b60008060408385031215611a7057600080fd5b6000611a7e85828601611871565b9250506020611a8f85828601611886565b9150509250929050565b60008060408385031215611aac57600080fd5b6000611aba85828601611871565b925050602083013567ffffffffffffffff811115611ad757600080fd5b611ae3858286016118ef565b9150509250929050565b60008060408385031215611b0057600080fd5b6000611b0e85828601611871565b9250506020611b1f85828601611919565b9150509250929050565b600060208284031215611b3b57600080fd5b6000611b498482850161189b565b91505092915050565b600060208284031215611b6457600080fd5b6000611b72848285016118b0565b91505092915050565b600060208284031215611b8d57600080fd5b6000611b9b84828501611919565b91505092915050565b611bad8161217e565b82525050565b611bbc81612190565b82525050565b6000611bcd826120f0565b611bd78185612106565b9350611be7818560208601612201565b611bf081612324565b840191505092915050565b6000611c06826120fb565b611c108185612117565b9350611c20818560208601612201565b611c2981612324565b840191505092915050565b6000611c41602d83612117565b9150611c4c82612335565b604082019050919050565b6000611c64603283612117565b9150611c6f82612384565b604082019050919050565b6000611c87602583612117565b9150611c92826123d3565b604082019050919050565b6000611caa601c83612117565b9150611cb582612422565b602082019050919050565b6000611ccd602483612117565b9150611cd88261244b565b604082019050919050565b6000611cf0601983612117565b9150611cfb8261249a565b602082019050919050565b6000611d13602983612117565b9150611d1e826124c3565b604082019050919050565b6000611d36602083612117565b9150611d4182612512565b602082019050919050565b6000611d59602c83612117565b9150611d648261253b565b604082019050919050565b6000611d7c602f83612117565b9150611d878261258a565b604082019050919050565b6000611d9f601883612117565b9150611daa826125d9565b602082019050919050565b6000611dc2602183612117565b9150611dcd82612602565b604082019050919050565b6000611de5603d83612117565b9150611df082612651565b604082019050919050565b611e04816121e8565b82525050565b6000602082019050611e1f6000830184611ba4565b92915050565b6000608082019050611e3a6000830187611ba4565b611e476020830186611ba4565b611e546040830185611dfb565b8181036060830152611e668184611bc2565b905095945050505050565b6000602082019050611e866000830184611bb3565b92915050565b60006020820190508181036000830152611ea68184611bfb565b905092915050565b60006020820190508181036000830152611ec781611c34565b9050919050565b60006020820190508181036000830152611ee781611c57565b9050919050565b60006020820190508181036000830152611f0781611c7a565b9050919050565b60006020820190508181036000830152611f2781611c9d565b9050919050565b60006020820190508181036000830152611f4781611cc0565b9050919050565b60006020820190508181036000830152611f6781611ce3565b9050919050565b60006020820190508181036000830152611f8781611d06565b9050919050565b60006020820190508181036000830152611fa781611d29565b9050919050565b60006020820190508181036000830152611fc781611d4c565b9050919050565b60006020820190508181036000830152611fe781611d6f565b9050919050565b6000602082019050818103600083015261200781611d92565b9050919050565b6000602082019050818103600083015261202781611db5565b9050919050565b6000602082019050818103600083015261204781611dd8565b9050919050565b60006020820190506120636000830184611dfb565b92915050565b6000612073612084565b905061207f8282612266565b919050565b6000604051905090565b600067ffffffffffffffff8211156120a9576120a86122f5565b5b6120b282612324565b9050602081019050919050565b600067ffffffffffffffff8211156120da576120d96122f5565b5b6120e382612324565b9050602081019050919050565b600081519050919050565b600081519050919050565b600082825260208201905092915050565b600082825260208201905092915050565b6000612133826121e8565b915061213e836121e8565b9250827fffffffffffffffffffffffffffffffffffffffffffffffffffffffffffffffff0382111561217357612172612297565b5b828201905092915050565b6000612189826121c8565b9050919050565b60008115159050919050565b60007fffffffff0000000000000000000000000000000000000000000000000000000082169050919050565b600073ffffffffffffffffffffffffffffffffffffffff82169050919050565b6000819050919050565b82818337600083830152505050565b60005b8381101561221f578082015181840152602081019050612204565b8381111561222e576000848401525b50505050565b6000600282049050600182168061224c57607f821691505b602082108114156122605761225f6122c6565b5b50919050565b61226f82612324565b810181811067ffffffffffffffff8211171561228e5761228d6122f5565b5b80604052505050565b7f4e487b7100000000000000000000000000000000000000000000000000000000600052601160045260246000fd5b7f4e487b7100000000000000000000000000000000000000000000000000000000600052602260045260246000fd5b7f4e487b7100000000000000000000000000000000000000000000000000000000600052604160045260246000fd5b6000601f19601f8301169050919050565b7f4552433732313a2063616c6c6572206973206e6f7420746f6b656e206f776e6560008201527f72206f7220617070726f76656400000000000000000000000000000000000000602082015250565b7f4552433732313a207472616e7366657220746f206e6f6e20455243373231526560008201527f63656976657220696d706c656d656e7465720000000000000000000000000000602082015250565b7f4552433732313a207472616e736665722066726f6d20696e636f72726563742060008201527f6f776e6572000000000000000000000000000000000000000000000000000000602082015250565b7f4552433732313a20746f6b656e20616c7265616479206d696e74656400000000600082015250565b7f4552433732313a207472616e7366657220746f20746865207a65726f2061646460008201527f7265737300000000000000000000000000000000000000000000000000000000602082015250565b7f4552433732313a20617070726f766520746f2063616c6c657200000000000000600082015250565b7f4552433732313a2061646472657373207a65726f206973206e6f74206120766160008201527f6c6964206f776e65720000000000000000000000000000000000000000000000602082015250565b7f4552433732313a206d696e7420746f20746865207a65726f2061646472657373600082015250565b7f4552433732314d657461646174613a2055524920736574206f66206e6f6e657860008201527f697374656e7420746f6b656e0000000000000000000000000000000000000000602082015250565b7f4552433732314d657461646174613a2055524920717565727920666f72206e6f60008201527f6e6578697374656e7420746f6b656e0000000000000000000000000000000000602082015250565b7f4552433732313a20696e76616c696420746f6b656e2049440000000000000000600082015250565b7f4552433732313a20617070726f76616c20746f2063757272656e74206f776e6560008201527f7200000000000000000000000000000000000000000000000000000000000000602082015250565b7f4552433732313a20617070726f76652063616c6c6572206973206e6f7420746f60008201527f6b656e206f776e6572206f7220617070726f76656420666f7220616c6c000000602082015250565b6126a98161217e565b81146126b457600080fd5b50565b6126c081612190565b81146126cb57600080fd5b50565b6126d78161219c565b81146126e257600080fd5b50565b6126ee816121e8565b81146126f957600080fd5b5056fea26469706673582212203c5b79f2d0748be4bddaa2907826e6b90f142b51253121a775df30fd3ec4529b64736f6c63430008010033",
  "linkReferences": {},
  "deployedLinkReferences": {}
}